{
	"data": {
		"bytecode": {
			"linkReferences": {},
			"object": "608060405234801561000f575f80fd5b50600280546001600160a01b0319163317905561011d8061002f5f395ff3fe6080604052348015600e575f80fd5b50600436106044575f3560e01c8063608fbc0f14604857806367fa1f69146059578063964d042c146068578063c4c8d0ad14607d575b5f80fd5b6057605336600460d1565b6084565b005b6057606436600460d1565b60ab565b5f545b60405190815260200160405180910390f35b600154606b565b60025473ffffffffffffffffffffffffffffffffffffffff16331460a6575f80fd5b600155565b60025473ffffffffffffffffffffffffffffffffffffffff16331460cd575f80fd5b5f55565b5f6020828403121560e0575f80fd5b503591905056fea2646970667358221220138ae89185d5f0bc76f07f09f53d3a6eec93c4bfa955d7e2a956a356dd40263864736f6c63430008160033",
			"opcodes": "PUSH1 0x80 PUSH1 0x40 MSTORE CALLVALUE DUP1 ISZERO PUSH2 0xF JUMPI PUSH0 DUP1 REVERT JUMPDEST POP PUSH1 0x2 DUP1 SLOAD PUSH1 0x1 PUSH1 0x1 PUSH1 0xA0 SHL SUB NOT AND CALLER OR SWAP1 SSTORE PUSH2 0x11D DUP1 PUSH2 0x2F PUSH0 CODECOPY PUSH0 RETURN INVALID PUSH1 0x80 PUSH1 0x40 MSTORE CALLVALUE DUP1 ISZERO PUSH1 0xE JUMPI PUSH0 DUP1 REVERT JUMPDEST POP PUSH1 0x4 CALLDATASIZE LT PUSH1 0x44 JUMPI PUSH0 CALLDATALOAD PUSH1 0xE0 SHR DUP1 PUSH4 0x608FBC0F EQ PUSH1 0x48 JUMPI DUP1 PUSH4 0x67FA1F69 EQ PUSH1 0x59 JUMPI DUP1 PUSH4 0x964D042C EQ PUSH1 0x68 JUMPI DUP1 PUSH4 0xC4C8D0AD EQ PUSH1 0x7D JUMPI JUMPDEST PUSH0 DUP1 REVERT JUMPDEST PUSH1 0x57 PUSH1 0x53 CALLDATASIZE PUSH1 0x4 PUSH1 0xD1 JUMP JUMPDEST PUSH1 0x84 JUMP JUMPDEST STOP JUMPDEST PUSH1 0x57 PUSH1 0x64 CALLDATASIZE PUSH1 0x4 PUSH1 0xD1 JUMP JUMPDEST PUSH1 0xAB JUMP JUMPDEST PUSH0 SLOAD JUMPDEST PUSH1 0x40 MLOAD SWAP1 DUP2 MSTORE PUSH1 0x20 ADD PUSH1 0x40 MLOAD DUP1 SWAP2 SUB SWAP1 RETURN JUMPDEST PUSH1 0x1 SLOAD PUSH1 0x6B JUMP JUMPDEST PUSH1 0x2 SLOAD PUSH20 0xFFFFFFFFFFFFFFFFFFFFFFFFFFFFFFFFFFFFFFFF AND CALLER EQ PUSH1 0xA6 JUMPI PUSH0 DUP1 REVERT JUMPDEST PUSH1 0x1 SSTORE JUMP JUMPDEST PUSH1 0x2 SLOAD PUSH20 0xFFFFFFFFFFFFFFFFFFFFFFFFFFFFFFFFFFFFFFFF AND CALLER EQ PUSH1 0xCD JUMPI PUSH0 DUP1 REVERT JUMPDEST PUSH0 SSTORE JUMP JUMPDEST PUSH0 PUSH1 0x20 DUP3 DUP5 SUB SLT ISZERO PUSH1 0xE0 JUMPI PUSH0 DUP1 REVERT JUMPDEST POP CALLDATALOAD SWAP2 SWAP1 POP JUMP INVALID LOG2 PUSH5 0x6970667358 0x22 SLT KECCAK256 SGT DUP11 0xE8 SWAP2 DUP6 0xD5 CREATE 0xBC PUSH23 0xF07F09F53D3A6EEC93C4BFA955D7E2A956A356DD402638 PUSH5 0x736F6C6343 STOP ADDMOD AND STOP CALLER "
		},
		"gasEstimates": {
			"creation": {
				"codeDepositCost": "57000",
				"executionCost": "24338",
				"totalCost": "81338"
			},
			"external": {
				"getTotalETHBalance()": "2289",
				"getTotalRETHSupply()": "2323",
				"setTotalETHBalance(uint256)": "24449",
				"setTotalRETHSupply(uint256)": "24428"
			}
		},
		"methodIdentifiers": {
			"getTotalETHBalance()": "964d042c",
			"getTotalRETHSupply()": "c4c8d0ad",
			"setTotalETHBalance(uint256)": "67fa1f69",
			"setTotalRETHSupply(uint256)": "608fbc0f"
		}
	},
	"abi": [
		{
			"inputs": [],
			"stateMutability": "nonpayable",
			"type": "constructor"
		},
		{
			"inputs": [],
			"name": "getTotalETHBalance",
			"outputs": [
				{
					"internalType": "uint256",
					"name": "",
					"type": "uint256"
				}
			],
			"stateMutability": "view",
			"type": "function"
		},
		{
			"inputs": [],
			"name": "getTotalRETHSupply",
			"outputs": [
				{
					"internalType": "uint256",
					"name": "",
					"type": "uint256"
				}
			],
			"stateMutability": "view",
			"type": "function"
		},
		{
			"inputs": [
				{
					"internalType": "uint256",
					"name": "_value",
					"type": "uint256"
				}
			],
			"name": "setTotalETHBalance",
			"outputs": [],
			"stateMutability": "nonpayable",
			"type": "function"
		},
		{
			"inputs": [
				{
					"internalType": "uint256",
					"name": "_value",
					"type": "uint256"
				}
			],
			"name": "setTotalRETHSupply",
			"outputs": [],
			"stateMutability": "nonpayable",
			"type": "function"
		}
	]
}